{
  "_format": "hh-sol-artifact-1",
  "contractName": "Counter",
  "sourceName": "contracts/Counter.sol",
  "abi": [
    {
      "inputs": [
        {
          "internalType": "uint32",
          "name": "value",
          "type": "uint32"
        }
      ],
      "name": "decrement",
      "outputs": [],
      "stateMutability": "nonpayable",
      "type": "function"
    },
    {
      "inputs": [],
      "name": "getCount",
      "outputs": [
        {
          "internalType": "uint32",
          "name": "",
          "type": "uint32"
        }
      ],
      "stateMutability": "view",
      "type": "function"
    },
    {
      "inputs": [
        {
          "internalType": "uint32",
          "name": "value",
          "type": "uint32"
        }
      ],
      "name": "increment",
      "outputs": [],
      "stateMutability": "nonpayable",
      "type": "function"
    }
  ],
  "bytecode": "0x6080604052348015600e575f5ffd5b506101cc8061001c5f395ff3fe608060405234801561000f575f5ffd5b506004361061003f575f3560e01c80633bbc853b14610043578063a87d942c14610058578063c3a7908d14610073575b5f5ffd5b610056610051366004610143565b610086565b005b5f546040805163ffffffff9092168252519081900360200190f35b610056610081366004610143565b6100c0565b5f8054829190819061009f90849063ffffffff16610181565b92506101000a81548163ffffffff021916908363ffffffff16021790555050565b5f5463ffffffff8083169116101561012a5760405162461bcd60e51b8152602060048201526024808201527f436f756e7465723a2063616e6e6f742064656372656d656e742062656c6f77206044820152637a65726f60e01b606482015260840160405180910390fd5b5f8054829190819061009f90849063ffffffff166101a3565b5f60208284031215610153575f5ffd5b813563ffffffff81168114610166575f5ffd5b9392505050565b634e487b7160e01b5f52601160045260245ffd5b63ffffffff818116838216019081111561019d5761019d61016d565b92915050565b63ffffffff828116828216039081111561019d5761019d61016d56fea164736f6c634300081b000a",
  "linkReferences": {},
  "deployedLinkReferences": {}
}