{
  "address": "0x5FbDB2315678afecb367f032d93F642f64180aa3",
  "abi": [
    {
      "inputs": [
        {
          "internalType": "bytes32",
          "name": "_merkleRoot",
          "type": "bytes32"
        }
      ],
      "stateMutability": "nonpayable",
      "type": "constructor"
    },
    {
      "inputs": [
        {
          "internalType": "address",
          "name": "spender",
          "type": "address"
        },
        {
          "internalType": "uint256",
          "name": "allowance",
          "type": "uint256"
        },
        {
          "internalType": "uint256",
          "name": "needed",
          "type": "uint256"
        }
      ],
      "name": "ERC20InsufficientAllowance",
      "type": "error"
    },
    {
      "inputs": [
        {
          "internalType": "address",
          "name": "sender",
          "type": "address"
        },
        {
          "internalType": "uint256",
          "name": "balance",
          "type": "uint256"
        },
        {
          "internalType": "uint256",
          "name": "needed",
          "type": "uint256"
        }
      ],
      "name": "ERC20InsufficientBalance",
      "type": "error"
    },
    {
      "inputs": [
        {
          "internalType": "address",
          "name": "approver",
          "type": "address"
        }
      ],
      "name": "ERC20InvalidApprover",
      "type": "error"
    },
    {
      "inputs": [
        {
          "internalType": "address",
          "name": "receiver",
          "type": "address"
        }
      ],
      "name": "ERC20InvalidReceiver",
      "type": "error"
    },
    {
      "inputs": [
        {
          "internalType": "address",
          "name": "sender",
          "type": "address"
        }
      ],
      "name": "ERC20InvalidSender",
      "type": "error"
    },
    {
      "inputs": [
        {
          "internalType": "address",
          "name": "spender",
          "type": "address"
        }
      ],
      "name": "ERC20InvalidSpender",
      "type": "error"
    },
    {
      "inputs": [
        {
          "internalType": "address",
          "name": "owner",
          "type": "address"
        }
      ],
      "name": "OwnableInvalidOwner",
      "type": "error"
    },
    {
      "inputs": [
        {
          "internalType": "address",
          "name": "account",
          "type": "address"
        }
      ],
      "name": "OwnableUnauthorizedAccount",
      "type": "error"
    },
    {
      "anonymous": false,
      "inputs": [
        {
          "indexed": true,
          "internalType": "address",
          "name": "creator",
          "type": "address"
        },
        {
          "indexed": false,
          "internalType": "address",
          "name": "airdropAddress",
          "type": "address"
        }
      ],
      "name": "AirdropCreated",
      "type": "event"
    },
    {
      "anonymous": false,
      "inputs": [
        {
          "indexed": true,
          "internalType": "address",
          "name": "owner",
          "type": "address"
        },
        {
          "indexed": true,
          "internalType": "address",
          "name": "spender",
          "type": "address"
        },
        {
          "indexed": false,
          "internalType": "uint256",
          "name": "value",
          "type": "uint256"
        }
      ],
      "name": "Approval",
      "type": "event"
    },
    {
      "anonymous": false,
      "inputs": [
        {
          "indexed": false,
          "internalType": "bytes32",
          "name": "newRoot",
          "type": "bytes32"
        }
      ],
      "name": "MerkleRootUpdated",
      "type": "event"
    },
    {
      "anonymous": false,
      "inputs": [
        {
          "indexed": true,
          "internalType": "address",
          "name": "previousOwner",
          "type": "address"
        },
        {
          "indexed": true,
          "internalType": "address",
          "name": "newOwner",
          "type": "address"
        }
      ],
      "name": "OwnershipTransferred",
      "type": "event"
    },
    {
      "anonymous": false,
      "inputs": [
        {
          "indexed": true,
          "internalType": "address",
          "name": "creator",
          "type": "address"
        },
        {
          "indexed": false,
          "internalType": "address",
          "name": "proposalAddress",
          "type": "address"
        }
      ],
      "name": "ProposalCreated",
      "type": "event"
    },
    {
      "anonymous": false,
      "inputs": [
        {
          "indexed": true,
          "internalType": "address",
          "name": "from",
          "type": "address"
        },
        {
          "indexed": true,
          "internalType": "address",
          "name": "to",
          "type": "address"
        },
        {
          "indexed": false,
          "internalType": "uint256",
          "name": "value",
          "type": "uint256"
        }
      ],
      "name": "Transfer",
      "type": "event"
    },
    {
      "stateMutability": "payable",
      "type": "fallback"
    },
    {
      "inputs": [
        {
          "internalType": "uint32",
          "name": "_proposalId",
          "type": "uint32"
        },
        {
          "internalType": "address",
          "name": "_receiver",
          "type": "address"
        },
        {
          "internalType": "uint256",
          "name": "_amount",
          "type": "uint256"
        }
      ],
      "name": "addReputation",
      "outputs": [],
      "stateMutability": "nonpayable",
      "type": "function"
    },
    {
      "inputs": [
        {
          "internalType": "address",
          "name": "owner",
          "type": "address"
        },
        {
          "internalType": "address",
          "name": "spender",
          "type": "address"
        }
      ],
      "name": "allowance",
      "outputs": [
        {
          "internalType": "uint256",
          "name": "",
          "type": "uint256"
        }
      ],
      "stateMutability": "view",
      "type": "function"
    },
    {
      "inputs": [
        {
          "internalType": "address",
          "name": "spender",
          "type": "address"
        },
        {
          "internalType": "uint256",
          "name": "value",
          "type": "uint256"
        }
      ],
      "name": "approve",
      "outputs": [
        {
          "internalType": "bool",
          "name": "",
          "type": "bool"
        }
      ],
      "stateMutability": "nonpayable",
      "type": "function"
    },
    {
      "inputs": [
        {
          "internalType": "address",
          "name": "account",
          "type": "address"
        }
      ],
      "name": "balanceOf",
      "outputs": [
        {
          "internalType": "uint256",
          "name": "",
          "type": "uint256"
        }
      ],
      "stateMutability": "view",
      "type": "function"
    },
    {
      "inputs": [
        {
          "internalType": "bytes32[]",
          "name": "proof",
          "type": "bytes32[]"
        },
        {
          "internalType": "string",
          "name": "_description",
          "type": "string"
        },
        {
          "internalType": "uint256",
          "name": "_votingPeriod",
          "type": "uint256"
        },
        {
          "internalType": "address",
          "name": "_target",
          "type": "address"
        },
        {
          "internalType": "uint256",
          "name": "_value",
          "type": "uint256"
        },
        {
          "internalType": "bytes",
          "name": "_calldata",
          "type": "bytes"
        }
      ],
      "name": "createProposal",
      "outputs": [
        {
          "internalType": "address",
          "name": "",
          "type": "address"
        }
      ],
      "stateMutability": "nonpayable",
      "type": "function"
    },
    {
      "inputs": [],
      "name": "decimals",
      "outputs": [
        {
          "internalType": "uint8",
          "name": "",
          "type": "uint8"
        }
      ],
      "stateMutability": "view",
      "type": "function"
    },
    {
      "inputs": [
        {
          "internalType": "uint32",
          "name": "_proposalId",
          "type": "uint32"
        },
        {
          "internalType": "address",
          "name": "_target",
          "type": "address"
        },
        {
          "internalType": "uint256",
          "name": "_value",
          "type": "uint256"
        },
        {
          "internalType": "bytes",
          "name": "_calldata",
          "type": "bytes"
        },
        {
          "internalType": "address",
          "name": "_executor",
          "type": "address"
        }
      ],
      "name": "executeProposal",
      "outputs": [],
      "stateMutability": "nonpayable",
      "type": "function"
    },
    {
      "inputs": [],
      "name": "merkleRoot",
      "outputs": [
        {
          "internalType": "bytes32",
          "name": "",
          "type": "bytes32"
        }
      ],
      "stateMutability": "view",
      "type": "function"
    },
    {
      "inputs": [],
      "name": "name",
      "outputs": [
        {
          "internalType": "string",
          "name": "",
          "type": "string"
        }
      ],
      "stateMutability": "view",
      "type": "function"
    },
    {
      "inputs": [],
      "name": "owner",
      "outputs": [
        {
          "internalType": "address",
          "name": "",
          "type": "address"
        }
      ],
      "stateMutability": "view",
      "type": "function"
    },
    {
      "inputs": [
        {
          "internalType": "uint32",
          "name": "",
          "type": "uint32"
        }
      ],
      "name": "proposal",
      "outputs": [
        {
          "internalType": "address",
          "name": "",
          "type": "address"
        }
      ],
      "stateMutability": "view",
      "type": "function"
    },
    {
      "inputs": [],
      "name": "proposalId",
      "outputs": [
        {
          "internalType": "uint32",
          "name": "",
          "type": "uint32"
        }
      ],
      "stateMutability": "view",
      "type": "function"
    },
    {
      "inputs": [],
      "name": "renounceOwnership",
      "outputs": [],
      "stateMutability": "nonpayable",
      "type": "function"
    },
    {
      "inputs": [],
      "name": "symbol",
      "outputs": [
        {
          "internalType": "string",
          "name": "",
          "type": "string"
        }
      ],
      "stateMutability": "view",
      "type": "function"
    },
    {
      "inputs": [],
      "name": "totalSupply",
      "outputs": [
        {
          "internalType": "uint256",
          "name": "",
          "type": "uint256"
        }
      ],
      "stateMutability": "view",
      "type": "function"
    },
    {
      "inputs": [
        {
          "internalType": "address",
          "name": "to",
          "type": "address"
        },
        {
          "internalType": "uint256",
          "name": "value",
          "type": "uint256"
        }
      ],
      "name": "transfer",
      "outputs": [
        {
          "internalType": "bool",
          "name": "",
          "type": "bool"
        }
      ],
      "stateMutability": "nonpayable",
      "type": "function"
    },
    {
      "inputs": [
        {
          "internalType": "address",
          "name": "from",
          "type": "address"
        },
        {
          "internalType": "address",
          "name": "to",
          "type": "address"
        },
        {
          "internalType": "uint256",
          "name": "value",
          "type": "uint256"
        }
      ],
      "name": "transferFrom",
      "outputs": [
        {
          "internalType": "bool",
          "name": "",
          "type": "bool"
        }
      ],
      "stateMutability": "nonpayable",
      "type": "function"
    },
    {
      "inputs": [
        {
          "internalType": "address",
          "name": "newOwner",
          "type": "address"
        }
      ],
      "name": "transferOwnership",
      "outputs": [],
      "stateMutability": "nonpayable",
      "type": "function"
    },
    {
      "inputs": [
        {
          "internalType": "bytes32",
          "name": "_newMerkleRoot",
          "type": "bytes32"
        }
      ],
      "name": "updateMerkleRoot",
      "outputs": [],
      "stateMutability": "nonpayable",
      "type": "function"
    },
    {
      "inputs": [
        {
          "internalType": "bytes32[]",
          "name": "proof",
          "type": "bytes32[]"
        },
        {
          "internalType": "address",
          "name": "account",
          "type": "address"
        }
      ],
      "name": "verify",
      "outputs": [
        {
          "internalType": "bool",
          "name": "",
          "type": "bool"
        }
      ],
      "stateMutability": "view",
      "type": "function"
    },
    {
      "stateMutability": "payable",
      "type": "receive"
    }
  ],
  "transactionHash": "0xf0018d00eca4666d05105125adb89597ed0f5802e62193ba32917db37af3f56a",
  "args": [
    "0xde71e9afa4599cc7873e129a15962add952323e9af92d86dae7396800764331b"
  ],
  "numDeployments": 1,
  "solcInputHash": "28993ab21bdd784f667fa06afc48f317",
  "bytecode": "0x608060405234801561000f575f5ffd5b506040516139d53803806139d583398101604081905261002e91610117565b604080518082018252600981526823b7bb102a37b5b2b760b91b6020808301919091528251808401909352600283526111d560f21b9083015290338061008d57604051631e4fbdf760e01b81525f600482015260240160405180910390fd5b610096816100c8565b5060046100a383826101c6565b5060056100b082826101c6565b5050506006556007805463ffffffff19169055610280565b5f80546001600160a01b038381166001600160a01b0319831681178455604051919092169283917f8be0079c531659141344cd1fd0a4f28419497f9722a3daafe3b4186f6b6457e09190a35050565b5f60208284031215610127575f5ffd5b5051919050565b634e487b7160e01b5f52604160045260245ffd5b600181811c9082168061015657607f821691505b60208210810361017457634e487b7160e01b5f52602260045260245ffd5b50919050565b601f8211156101c157805f5260205f20601f840160051c8101602085101561019f5750805b601f840160051c820191505b818110156101be575f81556001016101ab565b50505b505050565b81516001600160401b038111156101df576101df61012e565b6101f3816101ed8454610142565b8461017a565b6020601f821160018114610225575f831561020e5750848201515b5f19600385901b1c1916600184901b1784556101be565b5f84815260208120601f198516915b828110156102545787850151825560209485019460019092019101610234565b508482101561027157868401515f19600387901b60f8161c191681555b50505050600190811b01905550565b6137488061028d5f395ff3fe608060405260043610610149575f3560e01c806370a08231116100b357806395d89b411161006d578063ccf58d0d11610055578063ccf58d0d1461038c578063dd62ed3e146103c0578063f2fde38b1461040457005b806395d89b4114610359578063a9059cbb1461036d57005b80637b84464f1161009b5780637b84464f146102e75780637bdf2ad3146103065780638da5cb5b1461033d57005b806370a082311461029f578063715018a6146102d357005b80632eb4a7ab116101045780634783f0ef116100ec5780634783f0ef14610242578063588a9fdd14610261578063659a10261461028057005b80632eb4a7ab14610212578063313ce5671461022757005b806318160ddd1161013257806318160ddd146101a457806323b872dd146101c25780632dfca445146101e157005b806306fdde031461014b578063095ea7b314610175575b005b348015610156575f5ffd5b5061015f610423565b60405161016c9190610faa565b60405180910390f35b348015610180575f5ffd5b5061019461018f366004610fde565b6104b3565b604051901515815260200161016c565b3480156101af575f5ffd5b506003545b60405190815260200161016c565b3480156101cd575f5ffd5b506101946101dc366004611006565b6104cc565b3480156101ec575f5ffd5b506007546101fd9063ffffffff1681565b60405163ffffffff909116815260200161016c565b34801561021d575f5ffd5b506101b460065481565b348015610232575f5ffd5b506040516001815260200161016c565b34801561024d575f5ffd5b5061014961025c366004611040565b6104ef565b34801561026c575f5ffd5b5061014961027b36600461106a565b610532565b34801561028b575f5ffd5b5061019461029a366004611159565b6106b3565b3480156102aa575f5ffd5b506101b46102b93660046111a9565b6001600160a01b03165f9081526001602052604090205490565b3480156102de575f5ffd5b506101496106de565b3480156102f2575f5ffd5b506101496103013660046111c2565b6106f1565b348015610311575f5ffd5b50610325610320366004611286565b61076c565b6040516001600160a01b03909116815260200161016c565b348015610348575f5ffd5b505f546001600160a01b0316610325565b348015610364575f5ffd5b5061015f610897565b348015610378575f5ffd5b50610194610387366004610fde565b6108a6565b348015610397575f5ffd5b506103256103a636600461134f565b60086020525f90815260409020546001600160a01b031681565b3480156103cb575f5ffd5b506101b46103da366004611368565b6001600160a01b039182165f90815260026020908152604080832093909416825291909152205490565b34801561040f575f5ffd5b5061014961041e3660046111a9565b6108b3565b60606004805461043290611399565b80601f016020809104026020016040519081016040528092919081815260200182805461045e90611399565b80156104a95780601f10610480576101008083540402835291602001916104a9565b820191905f5260205f20905b81548152906001019060200180831161048c57829003601f168201915b5050505050905090565b5f336104c08185856108f0565b60019150505b92915050565b5f336104d98582856108fd565b6104e4858585610979565b506001949350505050565b6104f76109d6565b60068190556040518181527f90004c04698bc3322499a575ed3752dd4abf33e0a7294c06a787a0fe01bea9419060200160405180910390a150565b63ffffffff86165f908152600860205260409020546001600160a01b031633146105a35760405162461bcd60e51b815260206004820152601760248201527f4e6f7420617574686f72697a65642070726f706f73616c00000000000000000060448201526064015b60405180910390fd5b834710156105f35760405162461bcd60e51b815260206004820152601560248201527f44414f3a20696e73756666696369656e74204554480000000000000000000000604482015260640161059a565b5f856001600160a01b031685858560405161060f9291906113d1565b5f6040518083038185875af1925050503d805f8114610649576040519150601f19603f3d011682016040523d82523d5f602084013e61064e565b606091505b505090508061069f5760405162461bcd60e51b815260206004820152601060248201527f457865637574696f6e206661696c656400000000000000000000000000000000604482015260640161059a565b6106aa826001610a02565b50505050505050565b5f5f6106be83610a3a565b8051906020012090506106d5858583600654610b9d565b95945050505050565b6106e66109d6565b6106ef5f610c3f565b565b63ffffffff83165f908152600860205260409020546001600160a01b0316331461075d5760405162461bcd60e51b815260206004820152601560248201527f4e6f742070726f706f73616c20636f6e74726163740000000000000000000000604482015260640161059a565b6107678282610a02565b505050565b5f6107788888336106b3565b6107c45760405162461bcd60e51b815260206004820152601260248201527f4e6f7420696e204d65726b6c6520547265650000000000000000000000000000604482015260640161059a565b6007545f906107dd9063ffffffff168888888888610c9b565b6007805463ffffffff9081165f908152600860205260408120805473ffffffffffffffffffffffffffffffffffffffff19166001600160a01b038616179055825493945092169161082d836113f4565b825463ffffffff9182166101009390930a9283029190920219909116179055506040516001600160a01b038216815233907f452ab1b43e295baa201eb0d01fcbcb6bd9f5f2035554bcf6f3e1fedbbc53d8309060200160405180910390a298975050505050505050565b60606005805461043290611399565b5f336104c0818585610979565b6108bb6109d6565b6001600160a01b0381166108e457604051631e4fbdf760e01b81525f600482015260240161059a565b6108ed81610c3f565b50565b6107678383836001610d77565b6001600160a01b038381165f908152600260209081526040808320938616835292905220545f19811015610973578181101561096557604051637dc7a0d960e11b81526001600160a01b0384166004820152602481018290526044810183905260640161059a565b61097384848484035f610d77565b50505050565b6001600160a01b0383166109a257604051634b637e8f60e11b81525f600482015260240161059a565b6001600160a01b0382166109cb5760405163ec442f0560e01b81525f600482015260240161059a565b610767838383610e49565b5f546001600160a01b031633146106ef5760405163118cdaa760e01b815233600482015260240161059a565b6001600160a01b038216610a2b5760405163ec442f0560e01b81525f600482015260240161059a565b610a365f8383610e49565b5050565b60408051602880825260608281019093525f91906020820181803683370190505090505f5b6014811015610b96575f610a74826013611418565b610a7f90600861142b565b6001600160a01b038616901c9050600f600482901c8116908216600a8210610ab157610aac826057611442565b610abc565b610abc826030611442565b60f81b85610acb86600261142b565b81518110610adb57610adb61145b565b60200101907effffffffffffffffffffffffffffffffffffffffffffffffffffffffffffff191690815f1a905350600a8160ff1610610b2457610b1f816057611442565b610b2f565b610b2f816030611442565b60f81b85610b3e86600261142b565b610b4990600161146f565b81518110610b5957610b5961145b565b60200101907effffffffffffffffffffffffffffffffffffffffffffffffffffffffffffff191690815f1a9053505060019092019150610a5f9050565b5092915050565b5f82815b85811015610c33575f878783818110610bbc57610bbc61145b565b905060200201359050808311610bfd576040805160208101859052908101829052606001604051602081830303815290604052805190602001209250610c2a565b60408051602081018390529081018490526060016040516020818303038152906040528051906020012092505b50600101610ba1565b50909114949350505050565b5f80546001600160a01b0383811673ffffffffffffffffffffffffffffffffffffffff19831681178455604051919092169283917f8be0079c531659141344cd1fd0a4f28419497f9722a3daafe3b4186f6b6457e09190a35050565b5f5f60405180602001610cad90610f6f565b601f1982820381018352601f909101166040819052610cda908a908a908a908a908a908a90602001611482565b60408051601f1981840301815290829052610cf892916020016114f1565b60405160208183030381529060405290505f5f8251602084015ff590506001600160a01b038116610d6b5760405162461bcd60e51b815260206004820152601760248201527f50726f7879206465706c6f796d656e74206661696c6564000000000000000000604482015260640161059a565b98975050505050505050565b6001600160a01b038416610da05760405163e602df0560e01b81525f600482015260240161059a565b6001600160a01b038316610dc957604051634a1406b160e11b81525f600482015260240161059a565b6001600160a01b038085165f908152600260209081526040808320938716835292905220829055801561097357826001600160a01b0316846001600160a01b03167f8c5be1e5ebec7d5bd14f71427d1e84f3dd0314c0f7b2291e5b200ac8c7c3b92584604051610e3b91815260200190565b60405180910390a350505050565b6001600160a01b038316610e73578060035f828254610e68919061146f565b90915550610ee39050565b6001600160a01b0383165f9081526001602052604090205481811015610ec55760405163391434e360e21b81526001600160a01b0385166004820152602481018290526044810183905260640161059a565b6001600160a01b0384165f9081526001602052604090209082900390555b6001600160a01b038216610eff57600380548290039055610f1d565b6001600160a01b0382165f9081526001602052604090208054820190555b816001600160a01b0316836001600160a01b03167fddf252ad1be2c89b69c2b068fc378daa952ba7f163c4a11628f55a4df523b3ef83604051610f6291815260200190565b60405180910390a3505050565b61222e8061150e83390190565b5f81518084528060208401602086015e5f602082860101526020601f19601f83011685010191505092915050565b602081525f610fbc6020830184610f7c565b9392505050565b80356001600160a01b0381168114610fd9575f5ffd5b919050565b5f5f60408385031215610fef575f5ffd5b610ff883610fc3565b946020939093013593505050565b5f5f5f60608486031215611018575f5ffd5b61102184610fc3565b925061102f60208501610fc3565b929592945050506040919091013590565b5f60208284031215611050575f5ffd5b5035919050565b803563ffffffff81168114610fd9575f5ffd5b5f5f5f5f5f5f60a0878903121561107f575f5ffd5b61108887611057565b955061109660208801610fc3565b945060408701359350606087013567ffffffffffffffff8111156110b8575f5ffd5b8701601f810189136110c8575f5ffd5b803567ffffffffffffffff8111156110de575f5ffd5b8960208284010111156110ef575f5ffd5b6020919091019350915061110560808801610fc3565b90509295509295509295565b5f5f83601f840112611121575f5ffd5b50813567ffffffffffffffff811115611138575f5ffd5b6020830191508360208260051b8501011115611152575f5ffd5b9250929050565b5f5f5f6040848603121561116b575f5ffd5b833567ffffffffffffffff811115611181575f5ffd5b61118d86828701611111565b90945092506111a0905060208501610fc3565b90509250925092565b5f602082840312156111b9575f5ffd5b610fbc82610fc3565b5f5f5f606084860312156111d4575f5ffd5b61102184611057565b634e487b7160e01b5f52604160045260245ffd5b5f5f67ffffffffffffffff84111561120b5761120b6111dd565b50604051601f19601f85018116603f0116810181811067ffffffffffffffff8211171561123a5761123a6111dd565b604052838152905080828401851015611251575f5ffd5b838360208301375f60208583010152509392505050565b5f82601f830112611277575f5ffd5b610fbc838335602085016111f1565b5f5f5f5f5f5f5f60c0888a03121561129c575f5ffd5b873567ffffffffffffffff8111156112b2575f5ffd5b6112be8a828b01611111565b909850965050602088013567ffffffffffffffff8111156112dd575f5ffd5b8801601f81018a136112ed575f5ffd5b6112fc8a8235602084016111f1565b9550506040880135935061131260608901610fc3565b92506080880135915060a088013567ffffffffffffffff811115611334575f5ffd5b6113408a828b01611268565b91505092959891949750929550565b5f6020828403121561135f575f5ffd5b610fbc82611057565b5f5f60408385031215611379575f5ffd5b61138283610fc3565b915061139060208401610fc3565b90509250929050565b600181811c908216806113ad57607f821691505b6020821081036113cb57634e487b7160e01b5f52602260045260245ffd5b50919050565b818382375f9101908152919050565b634e487b7160e01b5f52601160045260245ffd5b5f63ffffffff821663ffffffff810361140f5761140f6113e0565b60010192915050565b818103818111156104c6576104c66113e0565b80820281158282048414176104c6576104c66113e0565b60ff81811683821601908111156104c6576104c66113e0565b634e487b7160e01b5f52603260045260245ffd5b808201808211156104c6576104c66113e0565b63ffffffff8716815260c060208201525f6114a060c0830188610f7c565b8660408401526001600160a01b038616606084015284608084015282810360a08401526114cd8185610f7c565b9998505050505050505050565b5f81518060208401855e5f93019283525090919050565b5f6115056114ff83866114da565b846114da565b94935050505056fe608060405234801561000f575f5ffd5b5060405161222e38038061222e83398101604081905261002e916104ed565b6100bc61003961017e565b80515f51602061220e5f395f51905f5280546001600160a01b03199081166001600160a01b039384161790915560208301515f5160206121ee5f395f51905f528054831691841691909117905560408301517f9e7b61f58c47dc699ac88507c4f5bb9f121c03808c5676a8078fe583e46497028054909216921691909117905550565b5f805463ffffffff191663ffffffff88161790556100da84426105a2565b6004556100e86002856105c1565b6100f290426105a2565b60035560056101018682610664565b50600780546001600160a01b0319166001600160a01b0385161790556008829055600961012e8282610664565b506101385f6102ed565b6001556101445f6102ed565b600255600680546001600160a01b0319163317905560015461016590610308565b5060025461017290610308565b50505050505050610765565b604080516060810182525f8082526020820181905291810191909152466001036101d7575060408051606080820183525f8083526020808401829052928401819052835191820184528082529181018290529182015290565b4662aa36a703610256575060408051606080820183525f8083526020808401829052928401528251908101835273f0ffdc93b7e186bc2f8cb3daa75d86d1930a433d81527392c920834ec8941d2c77d188936e1f7a6f49c1279181019190915273be0e383937d564d7ff0bc3b46c51f0bf8d5c311a9181019190915290565b46617a69036102d4575060408051606080820183525f808352602080840182905292840152825190810183527350157cffd6bbfa2dece204a89ec419c23ef5755d815273e3a9105a3a932253a70f126eb1e3b589c643dd249181019190915273be0e383937d564d7ff0bc3b46c51f0bf8d5c311a9181019190915290565b6040516373cac13b60e01b815260040160405180910390fd5b5f6103026001600160401b0383166005610317565b92915050565b5f61031382306103ae565b5090565b5f5160206121ee5f395f51905f5254604051639cd07acb60e01b81525f915f51602061220e5f395f51905f52916001600160a01b0390911690639cd07acb90610366908790879060040161071e565b6020604051808303815f875af1158015610382573d5f5f3e3d5ffd5b505050506040513d601f19601f820116820180604052508101906103a6919061074e565b949350505050565b5f5f51602061220e5f395f51905f528054604051635ca4b5b160e11b8152600481018690526001600160a01b03858116602483015292935091169063b9496b62906044015f604051808303815f87803b158015610409575f5ffd5b505af115801561041b573d5f5f3e3d5ffd5b50505050505050565b634e487b7160e01b5f52604160045260245ffd5b5f806001600160401b0384111561045157610451610424565b50604051601f19601f85018116603f011681018181106001600160401b038211171561047f5761047f610424565b604052838152905080828401851015610496575f5ffd5b8383602083015e5f60208583010152509392505050565b80516001600160a01b03811681146104c3575f5ffd5b919050565b5f82601f8301126104d7575f5ffd5b6104e683835160208501610438565b9392505050565b5f5f5f5f5f5f60c08789031215610502575f5ffd5b865163ffffffff81168114610515575f5ffd5b60208801519096506001600160401b03811115610530575f5ffd5b8701601f81018913610540575f5ffd5b61054f89825160208401610438565b604089015190965094506105679050606088016104ad565b608088015160a089015191945092506001600160401b03811115610589575f5ffd5b61059589828a016104c8565b9150509295509295509295565b8082018082111561030257634e487b7160e01b5f52601160045260245ffd5b5f826105db57634e487b7160e01b5f52601260045260245ffd5b500490565b600181811c908216806105f457607f821691505b60208210810361061257634e487b7160e01b5f52602260045260245ffd5b50919050565b601f82111561065f57805f5260205f20601f840160051c8101602085101561063d5750805b601f840160051c820191505b8181101561065c575f8155600101610649565b50505b505050565b81516001600160401b0381111561067d5761067d610424565b6106918161068b84546105e0565b84610618565b6020601f8211600181146106c3575f83156106ac5750848201515b5f19600385901b1c1916600184901b17845561065c565b5f84815260208120601f198516915b828110156106f257878501518255602094850194600190920191016106d2565b508482101561070f57868401515f19600387901b60f8161c191681555b50505050600190811b01905550565b828152604081016054831061074157634e487b7160e01b5f52602160045260245ffd5b8260208301529392505050565b5f6020828403121561075e575f5ffd5b5051919050565b611a7c806107725f395ff3fe608060405234801561000f575f5ffd5b5060043610610163575f3560e01c80635210eb56116100c7578063a6e664771161007d578063dd67c82d11610063578063dd67c82d146102a5578063e13217e7146102ad578063e8fcf723146102c0575f5ffd5b8063a6e6647714610294578063a98426101461029d575f5ffd5b80636e375427116100ad5780636e375427146102795780637284e416146102845780638927b0301461028c575f5ffd5b80635210eb561461025e5780635267532814610271575f5ffd5b806331a38c891161011c5780633fa4f245116101025780633fa4f245146102155780633fe2469d1461021e5780634162169f14610233575f5ffd5b806331a38c89146101f15780633eee4e27146101fe575f5ffd5b806322f3e2d41161014c57806322f3e2d41461018f57806327c0583f146101ab5780632dfca445146101cd575f5ffd5b80630360d96a146101675780631f6a1eb91461017c575b5f5ffd5b61017a6101753660046114bc565b6102df565b005b61017a61018a3660046115d0565b6104f2565b6004544211155b60405190151581526020015b60405180910390f35b6101966101b9366004611635565b600c6020525f908152604090205460ff1681565b5f546101dc9063ffffffff1681565b60405163ffffffff90911681526020016101a2565b600a546101969060ff1681565b61020760035481565b6040519081526020016101a2565b61020760085481565b61022661083a565b6040516101a29190611689565b600654610246906001600160a01b031681565b6040516001600160a01b0390911681526020016101a2565b600754610246906001600160a01b031681565b6102076108c6565b600354421115610196565b610226610931565b61020761093e565b61020760045481565b61019661094c565b610207610963565b61017a6102bb36600461169b565b6109ce565b6102076102ce366004611635565b600b6020525f908152604090205481565b6004544211156103365760405162461bcd60e51b815260206004820152601360248201527f50726f706f73616c206e6f74206163746976650000000000000000000000000060448201526064015b60405180910390fd5b6006546040516332cd081360e11b81526001600160a01b039091169063659a10269061036a90869086903390600401611717565b602060405180830381865afa158015610385573d5f5f3e3d5ffd5b505050506040513d601f19601f820116820180604052508101906103a99190611775565b6103f55760405162461bcd60e51b815260206004820152601b60248201527f4f6e6c79206d656d6265722063616e2070617274696369706174650000000000604482015260640161032d565b6003544211156104475760405162461bcd60e51b815260206004820152601360248201527f436f6d6d697420706572696f6420656e64656400000000000000000000000000604482015260640161032d565b335f908152600b6020526040902054156104a35760405162461bcd60e51b815260206004820152601160248201527f416c726561647920636f6d6d6974746564000000000000000000000000000000604482015260640161032d565b335f818152600b6020908152604091829020849055815192835282018390527f378881b5d2d0f50f0782bfc28c9194fbce3515be77236885f5256babb2e45c33910160405180910390a1505050565b60045442116105435760405162461bcd60e51b815260206004820152601060248201527f566f74696e67206e6f7420656e64656400000000000000000000000000000000604482015260640161032d565b600a5460ff16156105965760405162461bcd60e51b815260206004820152601060248201527f416c726561647920657865637574656400000000000000000000000000000000604482015260640161032d565b6040805160028082526060820183525f9260208301908036833701905050905061061c306001600160a01b031663dd67c82d6040518163ffffffff1660e01b8152600401602060405180830381865afa1580156105f5573d5f5f3e3d5ffd5b505050506040513d601f19601f820116820180604052508101906106199190611794565b90565b815f8151811061062e5761062e6117ab565b602002602001018181525050610679306001600160a01b031663526753286040518163ffffffff1660e01b8152600401602060405180830381865afa1580156105f5573d5f5f3e3d5ffd5b8160018151811061068c5761068c6117ab565b6020026020010181815250506106a3818484610d9c565b5f5f848060200190518101906106b991906117db565b915091508067ffffffffffffffff168267ffffffffffffffff16116107205760405162461bcd60e51b815260206004820152601560248201527f50726f706f73616c20646964206e6f7420706173730000000000000000000000604482015260640161032d565b6008546006546001600160a01b031631101561077e5760405162461bcd60e51b815260206004820152601560248201527f44414f3a20696e73756666696369656e74204554480000000000000000000000604482015260640161032d565b600a805460ff191660011790556006545f5460075460085460405163588a9fdd60e01b81526001600160a01b039485169463588a9fdd946107d29463ffffffff909116939116916009903390600401611844565b5f604051808303815f87803b1580156107e9575f5ffd5b505af11580156107fb573d5f5f3e3d5ffd5b50506040513381527f077e00e56e5d36ae097a95cb003427416253dd9bb4491393d3eb4cf8f63fd41e9250602001905060405180910390a15050505050565b600980546108479061180c565b80601f01602080910402602001604051908101604052809291908181526020018280546108739061180c565b80156108be5780601f10610895576101008083540402835291602001916108be565b820191905f5260205f20905b8154815290600101906020018083116108a157829003601f168201915b505050505081565b5f600454421161092a5760405162461bcd60e51b815260206004820152602960248201527f43616e2067657420656e63727970746564206461746120756e74696c20766f746044820152681a5b99c8195b99195960ba1b606482015260840161032d565b5060025490565b600580546108479061180c565b5f610947610e07565b905090565b5f6003544211801561094757505060045442111590565b5f60045442116109c75760405162461bcd60e51b815260206004820152602960248201527f43616e2067657420656e63727970746564206461746120756e74696c20766f746044820152681a5b99c8195b99195960ba1b606482015260840161032d565b5060015490565b6003544211610a1f5760405162461bcd60e51b815260206004820152601760248201527f436f6d6d697420706572696f64206e6f7420656e646564000000000000000000604482015260640161032d565b600454421115610a715760405162461bcd60e51b815260206004820152601360248201527f50726f706f73616c206e6f742061637469766500000000000000000000000000604482015260640161032d565b335f908152600c602052604090205460ff1615610ad05760405162461bcd60e51b815260206004820152601060248201527f416c72656164792072657665616c656400000000000000000000000000000000604482015260640161032d565b5f610b108584848080601f0160208091040260200160405190810160405280939291908181526020018383808284375f92019190915250610e3b92505050565b90505f8185604051602001610b2f929190918252602082015260400190565b60408051601f198184030181529181528151602092830120335f908152600b9093529120549091508114610ba55760405162461bcd60e51b815260206004820152600e60248201527f496e76616c69642072657665616c000000000000000000000000000000000000604482015260640161032d565b5f610bb883610bb35f610e51565b610e60565b90505f610bc984610bb36001610e51565b6006546040516370a0823160e01b81523360048201529192505f916001600160a01b03909116906370a0823190602401602060405180830381865afa158015610c14573d5f5f3e3d5ffd5b505050506040513d601f19601f82011682018060405250810190610c389190611794565b610c4390600161191e565b90505f610c4f82610e8e565b9050610c7a83610c6160015484610ea4565b610c75600154610c705f610e8e565b610ea4565b610ed2565b600181905550610c9f84610c9060025484610ea4565b610c75600254610c705f610e8e565b600255335f818152600c6020526040808220805460ff1916600190811790915560065492549151637b84464f60e01b815263ffffffff9092166004830152602482019390935260448101929092526001600160a01b031690637b84464f906064015f604051808303815f87803b158015610d17575f5ffd5b505af1158015610d29573d5f5f3e3d5ffd5b50505050610d38600154610f1b565b50610d44600254610f1b565b50610d50600154610f2a565b50610d5c600254610f2a565b506040513381527ffb2c4b8580fc11b56cd9e3e5b5be35fdc9320dc557ada0ecbccbaf5ecb4646a39060200160405180910390a150505050505050505050565b5f610da8848484610f34565b905080610dc85760405163cf6c44e960e01b815260040160405180910390fd5b7fc6366bab028b8d033cb362cfd1f2f3457ef4e92fc738b6788b90d5a7846367a08484604051610df9929190611977565b60405180910390a150505050565b5f46600103610e165750600190565b4662aa36a703610e27575061271190565b46617a6903610e3657505f1990565b505f90565b5f610e4883836002610fe1565b90505b92915050565b5f610e4b8260ff1660026110ee565b5f82610e7257610e6f5f610e51565b92505b81610e8357610e805f610e51565b91505b610e4883835f611198565b5f610e4b8267ffffffffffffffff1660056110ee565b5f82610eb657610eb35f610e8e565b92505b81610ec757610ec45f610e8e565b91505b610e4883835f611280565b5f83610ee457610ee15f611322565b93505b82610ef557610ef25f610e8e565b92505b81610f0657610f035f610e8e565b91505b610f1184848461133d565b90505b9392505050565b5f610f2682306113ca565b5090565b5f610f268261143e565b7f9e7b61f58c47dc699ac88507c4f5bb9f121c03808c5676a8078fe583e4649702546040516378542ead60e01b81525f915f516020611a505f395f51905f52916001600160a01b03909116906378542ead90610f989088908890889060040161199b565b6020604051808303815f875af1158015610fb4573d5f5f3e3d5ffd5b505050506040513d601f19601f82011682018060405250810190610fd89190611775565b95945050505050565b7f9e7b61f58c47dc699ac88507c4f5bb9f121c03808c5676a8078fe583e46497015460405163045fc19560e11b81525f915f516020611a505f395f51905f52916001600160a01b03909116906308bf832a906110479088903390899089906004016119f3565b6020604051808303815f875af1158015611063573d5f5f3e3d5ffd5b505050506040513d601f19601f820116820180604052508101906110879190611794565b8154604051630f8e573b60e21b8152600481018390523360248201529193506001600160a01b031690633e395cec906044015f604051808303815f87803b1580156110d0575f5ffd5b505af11580156110e2573d5f5f3e3d5ffd5b50505050509392505050565b7f9e7b61f58c47dc699ac88507c4f5bb9f121c03808c5676a8078fe583e464970154604051639cd07acb60e01b81525f915f516020611a505f395f51905f52916001600160a01b0390911690639cd07acb906111509087908790600401611a29565b6020604051808303815f875af115801561116c573d5f5f3e3d5ffd5b505050506040513d601f19601f820116820180604052508101906111909190611794565b949350505050565b5f5f82156111ab5750600160f81b6111ae565b505f5b7f9e7b61f58c47dc699ac88507c4f5bb9f121c03808c5676a8078fe583e46497015460405163f77f3f1d60e01b815260048101879052602481018690527fff00000000000000000000000000000000000000000000000000000000000000831660448201525f516020611a505f395f51905f52916001600160a01b03169063f77f3f1d906064015b6020604051808303815f875af1158015611252573d5f5f3e3d5ffd5b505050506040513d601f19601f820116820180604052508101906112769190611794565b9695505050505050565b5f5f82156112935750600160f81b611296565b505f5b7f9e7b61f58c47dc699ac88507c4f5bb9f121c03808c5676a8078fe583e46497015460405163022f65e760e31b815260048101879052602481018690527fff00000000000000000000000000000000000000000000000000000000000000831660448201525f516020611a505f395f51905f52916001600160a01b03169063117b2f3890606401611236565b5f610e4b82611331575f611334565b60015b60ff165f6110ee565b5f805f516020611a505f395f51905f526001810154604051637702dcff60e01b81526004810188905260248101879052604481018690529192506001600160a01b031690637702dcff906064016020604051808303815f875af11580156113a6573d5f5f3e3d5ffd5b505050506040513d601f19601f82011682018060405250810190610fd89190611794565b5f516020611a505f395f51905f528054604051635ca4b5b160e11b8152600481018590526001600160a01b0384811660248301529091169063b9496b62906044015b5f604051808303815f87803b158015611423575f5ffd5b505af1158015611435573d5f5f3e3d5ffd5b50505050505050565b6040805160018082528183019092525f516020611a505f395f51905f52915f91906020808301908036833701905050905082815f81518110611482576114826117ab565b60209081029190910101528154604051637d6e912360e11b81526001600160a01b039091169063fadd22469061140c908490600401611a3d565b5f5f5f604084860312156114ce575f5ffd5b833567ffffffffffffffff8111156114e4575f5ffd5b8401601f810186136114f4575f5ffd5b803567ffffffffffffffff81111561150a575f5ffd5b8660208260051b840101111561151e575f5ffd5b6020918201979096509401359392505050565b634e487b7160e01b5f52604160045260245ffd5b5f82601f830112611554575f5ffd5b813567ffffffffffffffff81111561156e5761156e611531565b604051601f8201601f19908116603f0116810167ffffffffffffffff8111828210171561159d5761159d611531565b6040528181528382016020018510156115b4575f5ffd5b816020850160208301375f918101602001919091529392505050565b5f5f604083850312156115e1575f5ffd5b823567ffffffffffffffff8111156115f7575f5ffd5b61160385828601611545565b925050602083013567ffffffffffffffff81111561161f575f5ffd5b61162b85828601611545565b9150509250929050565b5f60208284031215611645575f5ffd5b81356001600160a01b0381168114610f14575f5ffd5b5f81518084528060208401602086015e5f602082860101526020601f19601f83011685010191505092915050565b602081525f610e48602083018461165b565b5f5f5f5f606085870312156116ae575f5ffd5b8435935060208501359250604085013567ffffffffffffffff8111156116d2575f5ffd5b8501601f810187136116e2575f5ffd5b803567ffffffffffffffff8111156116f8575f5ffd5b876020828401011115611709575f5ffd5b949793965060200194505050565b604081528260408201525f7f07ffffffffffffffffffffffffffffffffffffffffffffffffffffffffffffff84111561174e575f5ffd5b8360051b808660608501376001600160a01b03939093166020830152500160600192915050565b5f60208284031215611785575f5ffd5b81518015158114610f14575f5ffd5b5f602082840312156117a4575f5ffd5b5051919050565b634e487b7160e01b5f52603260045260245ffd5b805167ffffffffffffffff811681146117d6575f5ffd5b919050565b5f5f604083850312156117ec575f5ffd5b6117f5836117bf565b9150611803602084016117bf565b90509250929050565b600181811c9082168061182057607f821691505b60208210810361183e57634e487b7160e01b5f52602260045260245ffd5b50919050565b63ffffffff861681526001600160a01b038516602082015283604082015260a060608201525f5f84545f8160011c9050600182168061188457607f821691505b6020821081036118a257634e487b7160e01b5f52602260045260245ffd5b60a0860182905260c086018180156118c157600181146118d757611903565b60ff198516825283151560051b82019550611903565b5f8a8152602090205f5b858110156118fd578154848201526001909101906020016118e1565b83019650505b505050506001600160a01b0385166080850152509050611276565b80820180821115610e4b57634e487b7160e01b5f52601160045260245ffd5b5f8151808452602084019350602083015f5b8281101561196d57815186526020958601959091019060010161194f565b5093949350505050565b604081525f611989604083018561193d565b8281036020840152610fd8818561165b565b606081525f6119ad606083018661193d565b82810360208401526119bf818661165b565b90508281036040840152611276818561165b565b605481106119ef57634e487b7160e01b5f52602160045260245ffd5b9052565b8481526001600160a01b0384166020820152608060408201525f611a1a608083018561165b565b9050610fd860608301846119d3565b82815260408101610f1460208301846119d3565b602081525f610e48602083018461193d56fe9e7b61f58c47dc699ac88507c4f5bb9f121c03808c5676a8078fe583e4649700a164736f6c634300081b000a9e7b61f58c47dc699ac88507c4f5bb9f121c03808c5676a8078fe583e46497019e7b61f58c47dc699ac88507c4f5bb9f121c03808c5676a8078fe583e4649700a164736f6c634300081b000a",
  "devdoc": {
    "errors": {
      "ERC20InsufficientAllowance(address,uint256,uint256)": [
        {
          "details": "Indicates a failure with the `spender`s `allowance`. Used in transfers.",
          "params": {
            "allowance": "Amount of tokens a `spender` is allowed to operate with.",
            "needed": "Minimum amount required to perform a transfer.",
            "spender": "Address that may be allowed to operate on tokens without being their owner."
          }
        }
      ],
      "ERC20InsufficientBalance(address,uint256,uint256)": [
        {
          "details": "Indicates an error related to the current `balance` of a `sender`. Used in transfers.",
          "params": {
            "balance": "Current balance for the interacting account.",
            "needed": "Minimum amount required to perform a transfer.",
            "sender": "Address whose tokens are being transferred."
          }
        }
      ],
      "ERC20InvalidApprover(address)": [
        {
          "details": "Indicates a failure with the `approver` of a token to be approved. Used in approvals.",
          "params": {
            "approver": "Address initiating an approval operation."
          }
        }
      ],
      "ERC20InvalidReceiver(address)": [
        {
          "details": "Indicates a failure with the token `receiver`. Used in transfers.",
          "params": {
            "receiver": "Address to which tokens are being transferred."
          }
        }
      ],
      "ERC20InvalidSender(address)": [
        {
          "details": "Indicates a failure with the token `sender`. Used in transfers.",
          "params": {
            "sender": "Address whose tokens are being transferred."
          }
        }
      ],
      "ERC20InvalidSpender(address)": [
        {
          "details": "Indicates a failure with the `spender` to be approved. Used in approvals.",
          "params": {
            "spender": "Address that may be allowed to operate on tokens without being their owner."
          }
        }
      ],
      "OwnableInvalidOwner(address)": [
        {
          "details": "The owner is not a valid owner account. (eg. `address(0)`)"
        }
      ],
      "OwnableUnauthorizedAccount(address)": [
        {
          "details": "The caller account is not authorized to perform an operation."
        }
      ]
    },
    "events": {
      "Approval(address,address,uint256)": {
        "details": "Emitted when the allowance of a `spender` for an `owner` is set by a call to {approve}. `value` is the new allowance."
      },
      "Transfer(address,address,uint256)": {
        "details": "Emitted when `value` tokens are moved from one account (`from`) to another (`to`). Note that `value` may be zero."
      }
    },
    "kind": "dev",
    "methods": {
      "allowance(address,address)": {
        "details": "Returns the remaining number of tokens that `spender` will be allowed to spend on behalf of `owner` through {transferFrom}. This is zero by default. This value changes when {approve} or {transferFrom} are called."
      },
      "approve(address,uint256)": {
        "details": "See {IERC20-approve}. NOTE: If `value` is the maximum `uint256`, the allowance is not updated on `transferFrom`. This is semantically equivalent to an infinite approval. Requirements: - `spender` cannot be the zero address."
      },
      "balanceOf(address)": {
        "details": "Returns the value of tokens owned by `account`."
      },
      "decimals()": {
        "details": "Returns the number of decimals used to get its user representation. For example, if `decimals` equals `2`, a balance of `505` tokens should be displayed to a user as `5.05` (`505 / 10 ** 2`). Tokens usually opt for a value of 18, imitating the relationship between Ether and Wei. This is the default value returned by this function, unless it's overridden. NOTE: This information is only used for _display_ purposes: it in no way affects any of the arithmetic of the contract, including {IERC20-balanceOf} and {IERC20-transfer}."
      },
      "name()": {
        "details": "Returns the name of the token."
      },
      "owner()": {
        "details": "Returns the address of the current owner."
      },
      "renounceOwnership()": {
        "details": "Leaves the contract without owner. It will not be possible to call `onlyOwner` functions. Can only be called by the current owner. NOTE: Renouncing ownership will leave the contract without an owner, thereby disabling any functionality that is only available to the owner."
      },
      "symbol()": {
        "details": "Returns the symbol of the token, usually a shorter version of the name."
      },
      "totalSupply()": {
        "details": "Returns the value of tokens in existence."
      },
      "transfer(address,uint256)": {
        "details": "See {IERC20-transfer}. Requirements: - `to` cannot be the zero address. - the caller must have a balance of at least `value`."
      },
      "transferFrom(address,address,uint256)": {
        "details": "See {IERC20-transferFrom}. Skips emitting an {Approval} event indicating an allowance update. This is not required by the ERC. See {xref-ERC20-_approve-address-address-uint256-bool-}[_approve]. NOTE: Does not update the allowance if the current allowance is the maximum `uint256`. Requirements: - `from` and `to` cannot be the zero address. - `from` must have a balance of at least `value`. - the caller must have allowance for ``from``'s tokens of at least `value`."
      },
      "transferOwnership(address)": {
        "details": "Transfers ownership of the contract to a new account (`newOwner`). Can only be called by the current owner."
      }
    },
    "version": 1
  },
  "userdoc": {
    "kind": "user",
    "methods": {},
    "version": 1
  },
  "storageLayout": {
    "storage": [
      {
        "astId": 39180,
        "contract": "contracts/DAO.sol:DAO",
        "label": "_owner",
        "offset": 0,
        "slot": "0",
        "type": "t_address"
      },
      {
        "astId": 39479,
        "contract": "contracts/DAO.sol:DAO",
        "label": "_balances",
        "offset": 0,
        "slot": "1",
        "type": "t_mapping(t_address,t_uint256)"
      },
      {
        "astId": 39485,
        "contract": "contracts/DAO.sol:DAO",
        "label": "_allowances",
        "offset": 0,
        "slot": "2",
        "type": "t_mapping(t_address,t_mapping(t_address,t_uint256))"
      },
      {
        "astId": 39487,
        "contract": "contracts/DAO.sol:DAO",
        "label": "_totalSupply",
        "offset": 0,
        "slot": "3",
        "type": "t_uint256"
      },
      {
        "astId": 39489,
        "contract": "contracts/DAO.sol:DAO",
        "label": "_name",
        "offset": 0,
        "slot": "4",
        "type": "t_string_storage"
      },
      {
        "astId": 39491,
        "contract": "contracts/DAO.sol:DAO",
        "label": "_symbol",
        "offset": 0,
        "slot": "5",
        "type": "t_string_storage"
      },
      {
        "astId": 40116,
        "contract": "contracts/DAO.sol:DAO",
        "label": "merkleRoot",
        "offset": 0,
        "slot": "6",
        "type": "t_bytes32"
      },
      {
        "astId": 40118,
        "contract": "contracts/DAO.sol:DAO",
        "label": "proposalId",
        "offset": 0,
        "slot": "7",
        "type": "t_uint32"
      },
      {
        "astId": 40122,
        "contract": "contracts/DAO.sol:DAO",
        "label": "proposal",
        "offset": 0,
        "slot": "8",
        "type": "t_mapping(t_uint32,t_address)"
      }
    ],
    "types": {
      "t_address": {
        "encoding": "inplace",
        "label": "address",
        "numberOfBytes": "20"
      },
      "t_bytes32": {
        "encoding": "inplace",
        "label": "bytes32",
        "numberOfBytes": "32"
      },
      "t_mapping(t_address,t_mapping(t_address,t_uint256))": {
        "encoding": "mapping",
        "key": "t_address",
        "label": "mapping(address => mapping(address => uint256))",
        "numberOfBytes": "32",
        "value": "t_mapping(t_address,t_uint256)"
      },
      "t_mapping(t_address,t_uint256)": {
        "encoding": "mapping",
        "key": "t_address",
        "label": "mapping(address => uint256)",
        "numberOfBytes": "32",
        "value": "t_uint256"
      },
      "t_mapping(t_uint32,t_address)": {
        "encoding": "mapping",
        "key": "t_uint32",
        "label": "mapping(uint32 => address)",
        "numberOfBytes": "32",
        "value": "t_address"
      },
      "t_string_storage": {
        "encoding": "bytes",
        "label": "string",
        "numberOfBytes": "32"
      },
      "t_uint256": {
        "encoding": "inplace",
        "label": "uint256",
        "numberOfBytes": "32"
      },
      "t_uint32": {
        "encoding": "inplace",
        "label": "uint32",
        "numberOfBytes": "4"
      }
    }
  }
}