{
  "_format": "hh-sol-artifact-1",
  "contractName": "Proposal",
  "sourceName": "contracts/Proposal.sol",
  "abi": [
    {
      "inputs": [
        {
          "internalType": "uint32",
          "name": "_proposalId",
          "type": "uint32"
        },
        {
          "internalType": "string",
          "name": "_description",
          "type": "string"
        },
        {
          "internalType": "uint32",
          "name": "_vtPeriod",
          "type": "uint32"
        },
        {
          "internalType": "address",
          "name": "_target",
          "type": "address"
        },
        {
          "internalType": "uint256",
          "name": "_value",
          "type": "uint256"
        },
        {
          "internalType": "bytes",
          "name": "_calldata",
          "type": "bytes"
        }
      ],
      "stateMutability": "nonpayable",
      "type": "constructor"
    },
    {
      "inputs": [],
      "name": "InvalidKMSSignatures",
      "type": "error"
    },
    {
      "inputs": [],
      "name": "ZamaProtocolUnsupported",
      "type": "error"
    },
    {
      "anonymous": false,
      "inputs": [
        {
          "indexed": false,
          "internalType": "address",
          "name": "executor",
          "type": "address"
        }
      ],
      "name": "ProposalExecuted",
      "type": "event"
    },
    {
      "anonymous": false,
      "inputs": [
        {
          "indexed": false,
          "internalType": "bytes32[]",
          "name": "handlesList",
          "type": "bytes32[]"
        },
        {
          "indexed": false,
          "internalType": "bytes",
          "name": "abiEncodedCleartexts",
          "type": "bytes"
        }
      ],
      "name": "PublicDecryptionVerified",
      "type": "event"
    },
    {
      "anonymous": false,
      "inputs": [
        {
          "indexed": false,
          "internalType": "address",
          "name": "committer",
          "type": "address"
        },
        {
          "indexed": false,
          "internalType": "bytes32",
          "name": "commitment",
          "type": "bytes32"
        }
      ],
      "name": "VoteCommitted",
      "type": "event"
    },
    {
      "anonymous": false,
      "inputs": [
        {
          "indexed": false,
          "internalType": "address",
          "name": "revealer",
          "type": "address"
        }
      ],
      "name": "VoteRevealed",
      "type": "event"
    },
    {
      "inputs": [
        {
          "internalType": "bytes32[]",
          "name": "proof",
          "type": "bytes32[]"
        },
        {
          "internalType": "bytes32",
          "name": "commitment",
          "type": "bytes32"
        }
      ],
      "name": "commitVote",
      "outputs": [],
      "stateMutability": "nonpayable",
      "type": "function"
    },
    {
      "inputs": [
        {
          "internalType": "address",
          "name": "",
          "type": "address"
        }
      ],
      "name": "commitments",
      "outputs": [
        {
          "internalType": "bytes32",
          "name": "",
          "type": "bytes32"
        }
      ],
      "stateMutability": "view",
      "type": "function"
    },
    {
      "inputs": [],
      "name": "confidentialProtocolId",
      "outputs": [
        {
          "internalType": "uint256",
          "name": "",
          "type": "uint256"
        }
      ],
      "stateMutability": "view",
      "type": "function"
    },
    {
      "inputs": [],
      "name": "dao",
      "outputs": [
        {
          "internalType": "contract DAO",
          "name": "",
          "type": "address"
        }
      ],
      "stateMutability": "view",
      "type": "function"
    },
    {
      "inputs": [
        {
          "internalType": "bytes",
          "name": "abiEncodedResult",
          "type": "bytes"
        },
        {
          "internalType": "bytes",
          "name": "decryptionProof",
          "type": "bytes"
        }
      ],
      "name": "decryptResult",
      "outputs": [],
      "stateMutability": "nonpayable",
      "type": "function"
    },
    {
      "inputs": [],
      "name": "description",
      "outputs": [
        {
          "internalType": "string",
          "name": "",
          "type": "string"
        }
      ],
      "stateMutability": "view",
      "type": "function"
    },
    {
      "inputs": [],
      "name": "execute",
      "outputs": [],
      "stateMutability": "nonpayable",
      "type": "function"
    },
    {
      "inputs": [],
      "name": "executionData",
      "outputs": [
        {
          "internalType": "address",
          "name": "targetAddress",
          "type": "address"
        },
        {
          "internalType": "uint256",
          "name": "value",
          "type": "uint256"
        },
        {
          "internalType": "bytes",
          "name": "executionCalldata",
          "type": "bytes"
        }
      ],
      "stateMutability": "view",
      "type": "function"
    },
    {
      "inputs": [],
      "name": "getEncryptedVotes",
      "outputs": [
        {
          "internalType": "euint64",
          "name": "",
          "type": "bytes32"
        },
        {
          "internalType": "euint64",
          "name": "",
          "type": "bytes32"
        }
      ],
      "stateMutability": "view",
      "type": "function"
    },
    {
      "inputs": [],
      "name": "getProposalInfo",
      "outputs": [
        {
          "internalType": "uint32",
          "name": "_proposalId",
          "type": "uint32"
        },
        {
          "internalType": "string",
          "name": "_description",
          "type": "string"
        },
        {
          "internalType": "uint256",
          "name": "_commitEnd",
          "type": "uint256"
        },
        {
          "internalType": "uint256",
          "name": "_revealEnd",
          "type": "uint256"
        },
        {
          "internalType": "address",
          "name": "_target",
          "type": "address"
        },
        {
          "internalType": "uint256",
          "name": "_value",
          "type": "uint256"
        },
        {
          "internalType": "bytes",
          "name": "_calldata",
          "type": "bytes"
        }
      ],
      "stateMutability": "view",
      "type": "function"
    },
    {
      "inputs": [],
      "name": "getProposalStatus",
      "outputs": [
        {
          "internalType": "bool",
          "name": "_canCommit",
          "type": "bool"
        },
        {
          "internalType": "bool",
          "name": "_canReveal",
          "type": "bool"
        },
        {
          "internalType": "bool",
          "name": "_executed",
          "type": "bool"
        },
        {
          "internalType": "bool",
          "name": "_decrypted",
          "type": "bool"
        },
        {
          "internalType": "bool",
          "name": "_isActived",
          "type": "bool"
        },
        {
          "internalType": "bool",
          "name": "_isApproved",
          "type": "bool"
        }
      ],
      "stateMutability": "view",
      "type": "function"
    },
    {
      "inputs": [],
      "name": "info",
      "outputs": [
        {
          "internalType": "uint32",
          "name": "proposalId",
          "type": "uint32"
        },
        {
          "internalType": "uint32",
          "name": "commitEnd",
          "type": "uint32"
        },
        {
          "internalType": "uint32",
          "name": "revealEnd",
          "type": "uint32"
        },
        {
          "internalType": "bool",
          "name": "executed",
          "type": "bool"
        },
        {
          "internalType": "bool",
          "name": "decrypted",
          "type": "bool"
        },
        {
          "internalType": "uint64",
          "name": "decryptedYesVotes",
          "type": "uint64"
        },
        {
          "internalType": "uint64",
          "name": "decryptedNoVotes",
          "type": "uint64"
        }
      ],
      "stateMutability": "view",
      "type": "function"
    },
    {
      "inputs": [
        {
          "internalType": "externalEuint8",
          "name": "esupport",
          "type": "bytes32"
        },
        {
          "internalType": "bytes32",
          "name": "salt",
          "type": "bytes32"
        },
        {
          "internalType": "bytes",
          "name": "attestation",
          "type": "bytes"
        }
      ],
      "name": "revealVote",
      "outputs": [],
      "stateMutability": "nonpayable",
      "type": "function"
    },
    {
      "inputs": [
        {
          "internalType": "address",
          "name": "",
          "type": "address"
        }
      ],
      "name": "revealed",
      "outputs": [
        {
          "internalType": "bool",
          "name": "",
          "type": "bool"
        }
      ],
      "stateMutability": "view",
      "type": "function"
    }
  ],
  "bytecode": "0x608060405234801561000f575f5ffd5b5060405161279238038061279283398101604081905261002e9161064a565b6100bc6100396102c8565b80515f5160206127725f395f51905f5280546001600160a01b03199081166001600160a01b039384161790915560208301515f5160206127525f395f51905f528054831691841691909117905560408301517f9e7b61f58c47dc699ac88507c4f5bb9f121c03808c5676a8078fe583e46497028054909216921691909117905550565b60016100c8868261077e565b506040518060e001604052808763ffffffff1681526020016002866100ed9190610838565b6100fd9063ffffffff164261086b565b63ffffffff1681526020018563ffffffff164261011a919061086b565b63ffffffff90811682525f60208084018290526040808501839052606080860184905260809586019390935285516004805488850151898501518a880151998b015160a08c015160c0909c0151958a166001600160401b031990941693909317640100000000928a16929092029190911764ffffffffff60401b191668010000000000000000919098160260ff60601b1916969096176c010000000000000000000000009715159790970296909617600160681b600160b01b0319166d010000000000000000000000000095151595909502600160701b600160b01b03191694909417600160701b6001600160401b039788160217600160b01b600160f01b031916600160b01b969094169590950292909217909255825191820183526001600160a01b038616808352908201859052918101839052600580546001600160a01b03191690921782556006849055906007610275848261077e565b5061028391505f9050610437565b60085561028f5f610437565b6009555f80546001600160a01b031916331790556008546102af90610452565b506009546102bc90610452565b505050505050506108d1565b604080516060810182525f808252602082018190529181019190915246600103610321575060408051606080820183525f8083526020808401829052928401819052835191820184528082529181018290529182015290565b4662aa36a7036103a0575060408051606080820183525f8083526020808401829052928401528251908101835273f0ffdc93b7e186bc2f8cb3daa75d86d1930a433d81527392c920834ec8941d2c77d188936e1f7a6f49c1279181019190915273be0e383937d564d7ff0bc3b46c51f0bf8d5c311a9181019190915290565b46617a690361041e575060408051606080820183525f808352602080840182905292840152825190810183527350157cffd6bbfa2dece204a89ec419c23ef5755d815273e3a9105a3a932253a70f126eb1e3b589c643dd249181019190915273be0e383937d564d7ff0bc3b46c51f0bf8d5c311a9181019190915290565b6040516373cac13b60e01b815260040160405180910390fd5b5f61044c6001600160401b0383166005610461565b92915050565b5f61045d82306104f8565b5090565b5f5160206127525f395f51905f5254604051639cd07acb60e01b81525f915f5160206127725f395f51905f52916001600160a01b0390911690639cd07acb906104b0908790879060040161088a565b6020604051808303815f875af11580156104cc573d5f5f3e3d5ffd5b505050506040513d601f19601f820116820180604052508101906104f091906108ba565b949350505050565b5f5f5160206127725f395f51905f528054604051635ca4b5b160e11b8152600481018690526001600160a01b03858116602483015292935091169063b9496b62906044015f604051808303815f87803b158015610553575f5ffd5b505af1158015610565573d5f5f3e3d5ffd5b50505050505050565b805163ffffffff81168114610581575f5ffd5b919050565b634e487b7160e01b5f52604160045260245ffd5b5f806001600160401b038411156105b3576105b3610586565b50604051601f19601f85018116603f011681018181106001600160401b03821117156105e1576105e1610586565b6040528381529050808284018510156105f8575f5ffd5b8383602083015e5f60208583010152509392505050565b80516001600160a01b0381168114610581575f5ffd5b5f82601f830112610634575f5ffd5b6106438383516020850161059a565b9392505050565b5f5f5f5f5f5f60c0878903121561065f575f5ffd5b6106688761056e565b60208801519096506001600160401b03811115610683575f5ffd5b8701601f81018913610693575f5ffd5b6106a28982516020840161059a565b9550506106b16040880161056e565b93506106bf6060880161060f565b608088015160a089015191945092506001600160401b038111156106e1575f5ffd5b6106ed89828a01610625565b9150509295509295509295565b600181811c9082168061070e57607f821691505b60208210810361072c57634e487b7160e01b5f52602260045260245ffd5b50919050565b601f82111561077957805f5260205f20601f840160051c810160208510156107575750805b601f840160051c820191505b81811015610776575f8155600101610763565b50505b505050565b81516001600160401b0381111561079757610797610586565b6107ab816107a584546106fa565b84610732565b6020601f8211600181146107dd575f83156107c65750848201515b5f19600385901b1c1916600184901b178455610776565b5f84815260208120601f198516915b8281101561080c57878501518255602094850194600190920191016107ec565b508482101561082957868401515f19600387901b60f8161c191681555b50505050600190811b01905550565b5f63ffffffff83168061085957634e487b7160e01b5f52601260045260245ffd5b8063ffffffff84160491505092915050565b8082018082111561044c57634e487b7160e01b5f52601160045260245ffd5b82815260408101605483106108ad57634e487b7160e01b5f52602160045260245ffd5b8260208301529392505050565b5f602082840312156108ca575f5ffd5b5051919050565b611e74806108de5f395ff3fe608060405234801561000f575f5ffd5b50600436106100e5575f3560e01c80639a6efcc011610088578063cfeb652e11610063578063cfeb652e1461028b578063e13217e7146102cc578063e863cf10146102df578063e8fcf723146102f2575f5ffd5b80639a6efcc01461023c578063b3d7ad4814610259578063b797570914610270575f5ffd5b80634162169f116100c35780634162169f146101df57806361461954146102095780637284e416146102115780638927b03014610226575f5ffd5b80630360d96a146100e957806327c0583f146100fe578063370158ea14610135575b5f5ffd5b6100fc6100f736600461182e565b610311565b005b61012061010c3660046118a3565b60036020525f908152604090205460ff1681565b60405190151581526020015b60405180910390f35b60045461018e9063ffffffff808216916401000000008104821691600160401b8204169060ff600160601b8204811691600160681b81049091169067ffffffffffffffff600160701b8204811691600160b01b90041687565b6040805163ffffffff98891681529688166020880152949096169385019390935290151560608401521515608083015267ffffffffffffffff90811660a083015290911660c082015260e00161012c565b5f546101f1906001600160a01b031681565b6040516001600160a01b03909116815260200161012c565b6100fc61053e565b610219610773565b60405161012c91906118f7565b61022e6107ff565b60405190815260200161012c565b61024461080d565b6040805192835260208301919091520161012c565b6102616108a1565b60405161012c93929190611909565b610278610944565b60405161012c9796959493929190611930565b610293610acb565b604080519615158752941515602087015292151593850193909352151560608401529015156080830152151560a082015260c00161012c565b6100fc6102da36600461198f565b610b61565b6100fc6102ed366004611aaa565b610f4c565b61022e6103003660046118a3565b60026020525f908152604090205481565b600454600160401b900463ffffffff164211156103755760405162461bcd60e51b815260206004820152601360248201527f50726f706f73616c206e6f74206163746976650000000000000000000000000060448201526064015b60405180910390fd5b5f546040516332cd081360e11b81526001600160a01b039091169063659a1026906103a890869086903390600401611b0f565b602060405180830381865afa1580156103c3573d5f5f3e3d5ffd5b505050506040513d601f19601f820116820180604052508101906103e79190611b6d565b6104335760405162461bcd60e51b815260206004820152601b60248201527f4f6e6c79206d656d6265722063616e2070617274696369706174650000000000604482015260640161036c565b600454640100000000900463ffffffff164211156104935760405162461bcd60e51b815260206004820152601360248201527f436f6d6d697420706572696f6420656e64656400000000000000000000000000604482015260640161036c565b335f90815260026020526040902054156104ef5760405162461bcd60e51b815260206004820152601160248201527f416c726561647920636f6d6d6974746564000000000000000000000000000000604482015260640161036c565b335f81815260026020908152604091829020849055815192835282018390527f378881b5d2d0f50f0782bfc28c9194fbce3515be77236885f5256babb2e45c33910160405180910390a1505050565b600454600160601b900460ff16156105985760405162461bcd60e51b815260206004820152601060248201527f416c726561647920657865637574656400000000000000000000000000000000604482015260640161036c565b600454600160401b900463ffffffff1642116105e95760405162461bcd60e51b815260206004820152601060248201526f159bdd1a5b99c81b9bdd08195b99195960821b604482015260640161036c565b60045467ffffffffffffffff600160b01b82048116600160701b90920416116106545760405162461bcd60e51b815260206004820152601560248201527f50726f706f73616c20646964206e6f7420706173730000000000000000000000604482015260640161036c565b6006545f546001600160a01b03163110156106b15760405162461bcd60e51b815260206004820152601560248201527f44414f3a20696e73756666696369656e74204554480000000000000000000000604482015260640161036c565b600480546cff000000000000000000000000198116600160601b1782555f5460055460065460405163588a9fdd60e01b81526001600160a01b039384169563588a9fdd956107109563ffffffff90911694169291600791339101611bc4565b5f604051808303815f87803b158015610727575f5ffd5b505af1158015610739573d5f5f3e3d5ffd5b50506040513381527f077e00e56e5d36ae097a95cb003427416253dd9bb4491393d3eb4cf8f63fd41e9250602001905060405180910390a1565b6001805461078090611b8c565b80601f01602080910402602001604051908101604052809291908181526020018280546107ac90611b8c565b80156107f75780601f106107ce576101008083540402835291602001916107f7565b820191905f5260205f20905b8154815290600101906020018083116107da57829003601f168201915b505050505081565b5f61080861110e565b905090565b6004545f908190600160401b900463ffffffff1642116108955760405162461bcd60e51b815260206004820152602960248201527f43616e2067657420656e63727970746564206461746120756e74696c20766f7460448201527f696e6720656e6465640000000000000000000000000000000000000000000000606482015260840161036c565b50506008546009549091565b60058054600654600780546001600160a01b039093169391926108c390611b8c565b80601f01602080910402602001604051908101604052809291908181526020018280546108ef90611b8c565b801561093a5780601f106109115761010080835404028352916020019161093a565b820191905f5260205f20905b81548152906001019060200180831161091d57829003601f168201915b5050505050905083565b600454600554600654600180545f946060948694859485948594899463ffffffff808316956401000000008404821694600160401b909404909116926001600160a01b0390921691600790869061099a90611b8c565b80601f01602080910402602001604051908101604052809291908181526020018280546109c690611b8c565b8015610a115780601f106109e857610100808354040283529160200191610a11565b820191905f5260205f20905b8154815290600101906020018083116109f457829003601f168201915b505050505095508463ffffffff1694508363ffffffff169350808054610a3690611b8c565b80601f0160208091040260200160405190810160405280929190818152602001828054610a6290611b8c565b8015610aad5780601f10610a8457610100808354040283529160200191610aad565b820191905f5260205f20905b815481529060010190602001808311610a9057829003601f168201915b50505050509050965096509650965096509650965090919293949596565b6004545f9081908190819081908190640100000000900463ffffffff164211801590829082610b095750600454600160401b900463ffffffff164211155b60045492985096505060ff600160601b820481169550600160681b820416935063ffffffff600160401b820416421115925067ffffffffffffffff600160b01b82048116600160701b90920416119050909192939495565b600454640100000000900463ffffffff164211610bc05760405162461bcd60e51b815260206004820152601760248201527f436f6d6d697420706572696f64206e6f7420656e646564000000000000000000604482015260640161036c565b600454600160401b900463ffffffff16421115610c1f5760405162461bcd60e51b815260206004820152601360248201527f50726f706f73616c206e6f742061637469766500000000000000000000000000604482015260640161036c565b335f9081526003602052604090205460ff1615610c7e5760405162461bcd60e51b815260206004820152601060248201527f416c72656164792072657665616c656400000000000000000000000000000000604482015260640161036c565b5f610cbe8584848080601f0160208091040260200160405190810160405280939291908181526020018383808284375f9201919091525061114292505050565b90505f8185604051602001610cdd929190918252602082015260400190565b60408051601f198184030181529181528151602092830120335f90815260029093529120549091508114610d535760405162461bcd60e51b815260206004820152600e60248201527f496e76616c69642072657665616c000000000000000000000000000000000000604482015260640161036c565b5f610d6683610d615f611158565b611167565b90505f610d7784610d616001611158565b5f80546040516370a0823160e01b815233600482015292935090916001600160a01b03909116906370a0823190602401602060405180830381865afa158015610dc2573d5f5f3e3d5ffd5b505050506040513d601f19601f82011682018060405250810190610de69190611c9e565b610df1906001611cb5565b90505f610dfd82611195565b9050610e2883610e0f600854846111ab565b610e23600854610e1e5f611195565b6111ab565b6111d9565b600881905550610e4d84610e3e600954846111ab565b610e23600954610e1e5f611195565b600955335f81815260036020526040808220805460ff191660019081179091559154600480549251637b84464f60e01b815263ffffffff90931690830152602482019390935260448101919091526001600160a01b0390911690637b84464f906064015f604051808303815f87803b158015610ec7575f5ffd5b505af1158015610ed9573d5f5f3e3d5ffd5b50505050610ee8600854611222565b50610ef4600954611222565b50610f00600854611231565b50610f0c600954611231565b506040513381527ffb2c4b8580fc11b56cd9e3e5b5be35fdc9320dc557ada0ecbccbaf5ecb4646a39060200160405180910390a150505050505050505050565b600454600160681b900460ff1615610fa65760405162461bcd60e51b815260206004820152601160248201527f416c726561647920646563727970746564000000000000000000000000000000604482015260640161036c565b600454600160401b900463ffffffff164211610ff75760405162461bcd60e51b815260206004820152601060248201526f159bdd1a5b99c81b9bdd08195b99195960821b604482015260640161036c565b6040805160028082526060820183525f9260208301908036833701905050905061102060085490565b815f8151811061103257611032611cd4565b60209081029190910101526009548160018151811061105357611053611cd4565b60200260200101818152505061106a81848461123b565b5f5f848060200190518101906110809190611d04565b600480546dff000000000000000000000000001967ffffffffffffffff938416600160b01b027fffff0000000000000000ffffffffffffffffffffffffffffffffffffffffffff94909516600160701b02939093167fffff00000000000000000000000000000000ffffffffffffffffffffffffffff909116179290921716600160681b1790555050505050565b5f4660010361111d5750600190565b4662aa36a70361112e575061271190565b46617a690361113d57505f1990565b505f90565b5f61114f838360026112a6565b90505b92915050565b5f6111528260ff1660026113b3565b5f82611179576111765f611158565b92505b8161118a576111875f611158565b91505b61114f83835f61145d565b5f6111528267ffffffffffffffff1660056113b3565b5f826111bd576111ba5f611195565b92505b816111ce576111cb5f611195565b91505b61114f83835f611545565b5f836111eb576111e85f6115e7565b93505b826111fc576111f95f611195565b92505b8161120d5761120a5f611195565b91505b611218848484611602565b90505b9392505050565b5f61122d8230611698565b5090565b5f61122d8261170c565b5f61124784848461178a565b9050806112675760405163cf6c44e960e01b815260040160405180910390fd5b7fc6366bab028b8d033cb362cfd1f2f3457ef4e92fc738b6788b90d5a7846367a08484604051611298929190611d6f565b60405180910390a150505050565b7f9e7b61f58c47dc699ac88507c4f5bb9f121c03808c5676a8078fe583e46497015460405163045fc19560e11b81525f915f516020611e485f395f51905f52916001600160a01b03909116906308bf832a9061130c908890339089908990600401611db3565b6020604051808303815f875af1158015611328573d5f5f3e3d5ffd5b505050506040513d601f19601f8201168201806040525081019061134c9190611c9e565b8154604051630f8e573b60e21b8152600481018390523360248201529193506001600160a01b031690633e395cec906044015f604051808303815f87803b158015611395575f5ffd5b505af11580156113a7573d5f5f3e3d5ffd5b50505050509392505050565b7f9e7b61f58c47dc699ac88507c4f5bb9f121c03808c5676a8078fe583e464970154604051639cd07acb60e01b81525f915f516020611e485f395f51905f52916001600160a01b0390911690639cd07acb906114159087908790600401611de9565b6020604051808303815f875af1158015611431573d5f5f3e3d5ffd5b505050506040513d601f19601f820116820180604052508101906114559190611c9e565b949350505050565b5f5f82156114705750600160f81b611473565b505f5b7f9e7b61f58c47dc699ac88507c4f5bb9f121c03808c5676a8078fe583e46497015460405163f77f3f1d60e01b815260048101879052602481018690527fff00000000000000000000000000000000000000000000000000000000000000831660448201525f516020611e485f395f51905f52916001600160a01b03169063f77f3f1d906064015b6020604051808303815f875af1158015611517573d5f5f3e3d5ffd5b505050506040513d601f19601f8201168201806040525081019061153b9190611c9e565b9695505050505050565b5f5f82156115585750600160f81b61155b565b505f5b7f9e7b61f58c47dc699ac88507c4f5bb9f121c03808c5676a8078fe583e46497015460405163022f65e760e31b815260048101879052602481018690527fff00000000000000000000000000000000000000000000000000000000000000831660448201525f516020611e485f395f51905f52916001600160a01b03169063117b2f38906064016114fb565b5f611152826115f6575f6115f9565b60015b60ff165f6113b3565b5f805f516020611e485f395f51905f526001810154604051637702dcff60e01b81526004810188905260248101879052604481018690529192506001600160a01b031690637702dcff906064016020604051808303815f875af115801561166b573d5f5f3e3d5ffd5b505050506040513d601f19601f8201168201806040525081019061168f9190611c9e565b95945050505050565b5f516020611e485f395f51905f528054604051635ca4b5b160e11b8152600481018590526001600160a01b0384811660248301529091169063b9496b62906044015b5f604051808303815f87803b1580156116f1575f5ffd5b505af1158015611703573d5f5f3e3d5ffd5b50505050505050565b6040805160018082528183019092525f516020611e485f395f51905f52915f91906020808301908036833701905050905082815f8151811061175057611750611cd4565b60209081029190910101528154604051637d6e912360e11b81526001600160a01b039091169063fadd2246906116da908490600401611dfd565b7f9e7b61f58c47dc699ac88507c4f5bb9f121c03808c5676a8078fe583e4649702546040516378542ead60e01b81525f915f516020611e485f395f51905f52916001600160a01b03909116906378542ead906117ee90889088908890600401611e0f565b6020604051808303815f875af115801561180a573d5f5f3e3d5ffd5b505050506040513d601f19601f8201168201806040525081019061168f9190611b6d565b5f5f5f60408486031215611840575f5ffd5b833567ffffffffffffffff811115611856575f5ffd5b8401601f81018613611866575f5ffd5b803567ffffffffffffffff81111561187c575f5ffd5b8660208260051b8401011115611890575f5ffd5b6020918201979096509401359392505050565b5f602082840312156118b3575f5ffd5b81356001600160a01b038116811461121b575f5ffd5b5f81518084528060208401602086015e5f602082860101526020601f19601f83011685010191505092915050565b602081525f61114f60208301846118c9565b6001600160a01b0384168152826020820152606060408201525f61168f60608301846118c9565b63ffffffff8816815260e060208201525f61194e60e08301896118c9565b8760408401528660608401526001600160a01b03861660808401528460a084015282810360c084015261198181856118c9565b9a9950505050505050505050565b5f5f5f5f606085870312156119a2575f5ffd5b8435935060208501359250604085013567ffffffffffffffff8111156119c6575f5ffd5b8501601f810187136119d6575f5ffd5b803567ffffffffffffffff8111156119ec575f5ffd5b8760208284010111156119fd575f5ffd5b949793965060200194505050565b634e487b7160e01b5f52604160045260245ffd5b5f82601f830112611a2e575f5ffd5b813567ffffffffffffffff811115611a4857611a48611a0b565b604051601f8201601f19908116603f0116810167ffffffffffffffff81118282101715611a7757611a77611a0b565b604052818152838201602001851015611a8e575f5ffd5b816020850160208301375f918101602001919091529392505050565b5f5f60408385031215611abb575f5ffd5b823567ffffffffffffffff811115611ad1575f5ffd5b611add85828601611a1f565b925050602083013567ffffffffffffffff811115611af9575f5ffd5b611b0585828601611a1f565b9150509250929050565b604081528260408201525f7f07ffffffffffffffffffffffffffffffffffffffffffffffffffffffffffffff841115611b46575f5ffd5b8360051b808660608501376001600160a01b03939093166020830152500160600192915050565b5f60208284031215611b7d575f5ffd5b8151801515811461121b575f5ffd5b600181811c90821680611ba057607f821691505b602082108103611bbe57634e487b7160e01b5f52602260045260245ffd5b50919050565b63ffffffff861681526001600160a01b038516602082015283604082015260a060608201525f5f84545f8160011c90506001821680611c0457607f821691505b602082108103611c2257634e487b7160e01b5f52602260045260245ffd5b60a0860182905260c08601818015611c415760018114611c5757611c83565b60ff198516825283151560051b82019550611c83565b5f8a8152602090205f5b85811015611c7d57815484820152600190910190602001611c61565b83019650505b505050506001600160a01b038516608085015250905061153b565b5f60208284031215611cae575f5ffd5b5051919050565b8082018082111561115257634e487b7160e01b5f52601160045260245ffd5b634e487b7160e01b5f52603260045260245ffd5b805167ffffffffffffffff81168114611cff575f5ffd5b919050565b5f5f60408385031215611d15575f5ffd5b611d1e83611ce8565b9150611d2c60208401611ce8565b90509250929050565b5f8151808452602084019350602083015f5b82811015611d65578151865260209586019590910190600101611d47565b5093949350505050565b604081525f611d816040830185611d35565b828103602084015261168f81856118c9565b60548110611daf57634e487b7160e01b5f52602160045260245ffd5b9052565b8481526001600160a01b0384166020820152608060408201525f611dda60808301856118c9565b905061168f6060830184611d93565b8281526040810161121b6020830184611d93565b602081525f61114f6020830184611d35565b606081525f611e216060830186611d35565b8281036020840152611e3381866118c9565b9050828103604084015261153b81856118c956fe9e7b61f58c47dc699ac88507c4f5bb9f121c03808c5676a8078fe583e4649700a164736f6c634300081b000a9e7b61f58c47dc699ac88507c4f5bb9f121c03808c5676a8078fe583e46497019e7b61f58c47dc699ac88507c4f5bb9f121c03808c5676a8078fe583e4649700",
  "linkReferences": {},
  "deployedLinkReferences": {}
}